{
  "_format": "hh-sol-artifact-1",
  "contractName": "EtherFavoriteSongs",
  "sourceName": "contracts/WavePortal.sol",
  "abi": [
    {
      "inputs": [],
      "stateMutability": "payable",
      "type": "constructor"
    },
    {
      "anonymous": false,
      "inputs": [
        {
          "indexed": true,
          "internalType": "address",
          "name": "from",
          "type": "address"
        },
        {
          "indexed": false,
          "internalType": "uint256",
          "name": "timestamp",
          "type": "uint256"
        },
        {
          "indexed": false,
          "internalType": "string",
          "name": "url",
          "type": "string"
        }
      ],
      "name": "NewSong",
      "type": "event"
    },
    {
      "inputs": [
        {
          "internalType": "string",
          "name": "url",
          "type": "string"
        }
      ],
      "name": "addSong",
      "outputs": [],
      "stateMutability": "nonpayable",
      "type": "function"
    },
    {
      "inputs": [],
      "name": "getAllSongs",
      "outputs": [
        {
          "components": [
            {
              "internalType": "address",
              "name": "contributor",
              "type": "address"
            },
            {
              "internalType": "string",
              "name": "url",
              "type": "string"
            },
            {
              "internalType": "uint256",
              "name": "timestamp",
              "type": "uint256"
            }
          ],
          "internalType": "struct EtherFavoriteSongs.Song[]",
          "name": "",
          "type": "tuple[]"
        }
      ],
      "stateMutability": "view",
      "type": "function"
    },
    {
      "inputs": [],
      "name": "getSongsByUser",
      "outputs": [
        {
          "internalType": "uint256",
          "name": "",
          "type": "uint256"
        }
      ],
      "stateMutability": "view",
      "type": "function"
    },
    {
      "inputs": [],
      "name": "getTotalSongs",
      "outputs": [
        {
          "internalType": "uint256",
          "name": "",
          "type": "uint256"
        }
      ],
      "stateMutability": "view",
      "type": "function"
    },
    {
      "inputs": [
        {
          "internalType": "address",
          "name": "",
          "type": "address"
        }
      ],
      "name": "lastContributionAt",
      "outputs": [
        {
          "internalType": "uint256",
          "name": "",
          "type": "uint256"
        }
      ],
      "stateMutability": "view",
      "type": "function"
    },
    {
      "inputs": [
        {
          "internalType": "address",
          "name": "",
          "type": "address"
        }
      ],
      "name": "songsToContributor",
      "outputs": [
        {
          "internalType": "string",
          "name": "",
          "type": "string"
        }
      ],
      "stateMutability": "view",
      "type": "function"
    }
  ],
  "bytecode": "0x60806040526200004f6040518060400160405280601d81526020017f536d61727420636f6e747261637420686572652c206d6f7665206f75740000008152506200007760201b620008251760201c565b606444426200005f9190620001c4565b6200006b919062000261565b60018190555062000308565b62000117816040516024016200008e919062000184565b6040516020818303038152906040527f41304fac000000000000000000000000000000000000000000000000000000007bffffffffffffffffffffffffffffffffffffffffffffffffffffffff19166020820180517bffffffffffffffffffffffffffffffffffffffffffffffffffffffff83818316178352505050506200011a60201b60201c565b50565b60008151905060006a636f6e736f6c652e6c6f679050602083016000808483855afa5050505050565b60006200015082620001a8565b6200015c8185620001b3565b93506200016e8185602086016200022b565b6200017981620002f7565b840191505092915050565b60006020820190508181036000830152620001a0818462000143565b905092915050565b600081519050919050565b600082825260208201905092915050565b6000620001d18262000221565b9150620001de8362000221565b9250827fffffffffffffffffffffffffffffffffffffffffffffffffffffffffffffffff0382111562000216576200021562000299565b5b828201905092915050565b6000819050919050565b60005b838110156200024b5780820151818401526020810190506200022e565b838111156200025b576000848401525b50505050565b60006200026e8262000221565b91506200027b8362000221565b9250826200028e576200028d620002c8565b5b828206905092915050565b7f4e487b7100000000000000000000000000000000000000000000000000000000600052601160045260246000fd5b7f4e487b7100000000000000000000000000000000000000000000000000000000600052601260045260246000fd5b6000601f19601f8301169050919050565b61146080620003186000396000f3fe608060405234801561001057600080fd5b50600436106100625760003560e01c806329ef6862146100675780637f590f5e146100855780638c9db2b4146100a15780639af4c55d146100bf578063c44980ef146100ef578063d91670861461010d575b600080fd5b61006f61013d565b60405161007c9190610e70565b60405180910390f35b61009f600480360381019061009a9190610c07565b61028e565b005b6100a96106db565b6040516100b69190610fb9565b60405180910390f35b6100d960048036038101906100d49190610bde565b610726565b6040516100e69190610e92565b60405180910390f35b6100f76107c6565b6040516101049190610fb9565b60405180910390f35b61012760048036038101906101229190610bde565b61080d565b6040516101349190610fb9565b60405180910390f35b60606005805480602002602001604051908101604052809291908181526020016000905b8282101561028557838290600052602060002090600302016040518060600160405290816000820160009054906101000a900473ffffffffffffffffffffffffffffffffffffffff1673ffffffffffffffffffffffffffffffffffffffff1673ffffffffffffffffffffffffffffffffffffffff1681526020016001820180546101ea9061119f565b80601f01602080910402602001604051908101604052809291908181526020018280546102169061119f565b80156102635780601f1061023857610100808354040283529160200191610263565b820191906000526020600020905b81548152906001019060200180831161024657829003601f168201915b5050505050815260200160028201548152505081526020019060010190610161565b50505050905090565b42603c600460003373ffffffffffffffffffffffffffffffffffffffff1673ffffffffffffffffffffffffffffffffffffffff168152602001908152602001600020546102db91906110cb565b1061031b576040517f08c379a000000000000000000000000000000000000000000000000000000000815260040161031290610f59565b60405180910390fd5b42600460003373ffffffffffffffffffffffffffffffffffffffff1673ffffffffffffffffffffffffffffffffffffffff16815260200190815260200160002081905550600160008082825461037191906110cb565b92505081905550600360003373ffffffffffffffffffffffffffffffffffffffff1673ffffffffffffffffffffffffffffffffffffffff16815260200190815260200160002060008154809291906103c890611202565b9190505550600560405180606001604052803373ffffffffffffffffffffffffffffffffffffffff16815260200183815260200142815250908060018154018082558091505060019003906000526020600020906003020160009091909190915060008201518160000160006101000a81548173ffffffffffffffffffffffffffffffffffffffff021916908373ffffffffffffffffffffffffffffffffffffffff160217905550602082015181600101908051906020019061048c929190610abe565b50604082015181600201555050606460015442446104aa91906110cb565b6104b491906110cb565b6104be919061124b565b6001819055506105046040518060400160405280601581526020017f25732061646465642074686520257320736f6e6721000000000000000000000081525033836108be565b6032600154116106885761054d6040518060400160405280600781526020017f257320776f6e21000000000000000000000000000000000000000000000000008152503361095d565b6000655af3107a400090504781111561059b576040517f08c379a000000000000000000000000000000000000000000000000000000000815260040161059290610f79565b60405180910390fd5b60003373ffffffffffffffffffffffffffffffffffffffff16826040516105c190610e5b565b60006040518083038185875af1925050503d80600081146105fe576040519150601f19603f3d011682016040523d82523d6000602084013e610603565b606091505b5050905080610647576040517f08c379a000000000000000000000000000000000000000000000000000000000815260040161063e90610f99565b60405180910390fd5b6106856040518060400160405280601481526020017f616c6c20676f6f6420696e2073656e7420657468000000000000000000000000815250610825565b50505b3373ffffffffffffffffffffffffffffffffffffffff167f2e96c1f7928a9072fdae4127a395c0b9269f4a7dce78ac1d1ee0c22036af97d942836040516106d0929190610fd4565b60405180910390a250565b600061071e6040518060400160405280601781526020017f5765206861766520256420746f74616c20736f6e6773210000000000000000008152506000546109f9565b600054905090565b600260205280600052604060002060009150905080546107459061119f565b80601f01602080910402602001604051908101604052809291908181526020018280546107719061119f565b80156107be5780601f10610793576101008083540402835291602001916107be565b820191906000526020600020905b8154815290600101906020018083116107a157829003601f168201915b505050505081565b6000600360003373ffffffffffffffffffffffffffffffffffffffff1673ffffffffffffffffffffffffffffffffffffffff16815260200190815260200160002054905090565b60046020528060005260406000206000915090505481565b6108bb816040516024016108399190610e92565b6040516020818303038152906040527f41304fac000000000000000000000000000000000000000000000000000000007bffffffffffffffffffffffffffffffffffffffffffffffffffffffff19166020820180517bffffffffffffffffffffffffffffffffffffffffffffffffffffffff8381831617835250505050610a95565b50565b6109588383836040516024016108d693929190610ee4565b6040516020818303038152906040527fe0e9ad4f000000000000000000000000000000000000000000000000000000007bffffffffffffffffffffffffffffffffffffffffffffffffffffffff19166020820180517bffffffffffffffffffffffffffffffffffffffffffffffffffffffff8381831617835250505050610a95565b505050565b6109f58282604051602401610973929190610eb4565b6040516020818303038152906040527f319af333000000000000000000000000000000000000000000000000000000007bffffffffffffffffffffffffffffffffffffffffffffffffffffffff19166020820180517bffffffffffffffffffffffffffffffffffffffffffffffffffffffff8381831617835250505050610a95565b5050565b610a918282604051602401610a0f929190610f29565b6040516020818303038152906040527f9710a9d0000000000000000000000000000000000000000000000000000000007bffffffffffffffffffffffffffffffffffffffffffffffffffffffff19166020820180517bffffffffffffffffffffffffffffffffffffffffffffffffffffffff8381831617835250505050610a95565b5050565b60008151905060006a636f6e736f6c652e6c6f679050602083016000808483855afa5050505050565b828054610aca9061119f565b90600052602060002090601f016020900481019282610aec5760008555610b33565b82601f10610b0557805160ff1916838001178555610b33565b82800160010185558215610b33579182015b82811115610b32578251825591602001919060010190610b17565b5b509050610b409190610b44565b5090565b5b80821115610b5d576000816000905550600101610b45565b5090565b6000610b74610b6f84611029565b611004565b905082815260208101848484011115610b8c57600080fd5b610b9784828561115d565b509392505050565b600081359050610bae81611413565b92915050565b600082601f830112610bc557600080fd5b8135610bd5848260208601610b61565b91505092915050565b600060208284031215610bf057600080fd5b6000610bfe84828501610b9f565b91505092915050565b600060208284031215610c1957600080fd5b600082013567ffffffffffffffff811115610c3357600080fd5b610c3f84828501610bb4565b91505092915050565b6000610c548383610ded565b905092915050565b610c6581611121565b82525050565b610c7481611121565b82525050565b6000610c858261106a565b610c8f818561108d565b935083602082028501610ca18561105a565b8060005b85811015610cdd5784840389528151610cbe8582610c48565b9450610cc983611080565b925060208a01995050600181019050610ca5565b50829750879550505050505092915050565b6000610cfa82611075565b610d0481856110a9565b9350610d1481856020860161116c565b610d1d81611338565b840191505092915050565b6000610d3382611075565b610d3d81856110ba565b9350610d4d81856020860161116c565b610d5681611338565b840191505092915050565b6000610d6e6007836110ba565b9150610d7982611349565b602082019050919050565b6000610d916034836110ba565b9150610d9c82611372565b604082019050919050565b6000610db46027836110ba565b9150610dbf826113c1565b604082019050919050565b6000610dd760008361109e565b9150610de282611410565b600082019050919050565b6000606083016000830151610e056000860182610c5c565b5060208301518482036020860152610e1d8282610cef565b9150506040830151610e326040860182610e3d565b508091505092915050565b610e4681611153565b82525050565b610e5581611153565b82525050565b6000610e6682610dca565b9150819050919050565b60006020820190508181036000830152610e8a8184610c7a565b905092915050565b60006020820190508181036000830152610eac8184610d28565b905092915050565b60006040820190508181036000830152610ece8185610d28565b9050610edd6020830184610c6b565b9392505050565b60006060820190508181036000830152610efe8186610d28565b9050610f0d6020830185610c6b565b8181036040830152610f1f8184610d28565b9050949350505050565b60006040820190508181036000830152610f438185610d28565b9050610f526020830184610e4c565b9392505050565b60006020820190508181036000830152610f7281610d61565b9050919050565b60006020820190508181036000830152610f9281610d84565b9050919050565b60006020820190508181036000830152610fb281610da7565b9050919050565b6000602082019050610fce6000830184610e4c565b92915050565b6000604082019050610fe96000830185610e4c565b8181036020830152610ffb8184610d28565b90509392505050565b600061100e61101f565b905061101a82826111d1565b919050565b6000604051905090565b600067ffffffffffffffff82111561104457611043611309565b5b61104d82611338565b9050602081019050919050565b6000819050602082019050919050565b600081519050919050565b600081519050919050565b6000602082019050919050565b600082825260208201905092915050565b600081905092915050565b600082825260208201905092915050565b600082825260208201905092915050565b60006110d682611153565b91506110e183611153565b9250827fffffffffffffffffffffffffffffffffffffffffffffffffffffffffffffffff038211156111165761111561127c565b5b828201905092915050565b600061112c82611133565b9050919050565b600073ffffffffffffffffffffffffffffffffffffffff82169050919050565b6000819050919050565b82818337600083830152505050565b60005b8381101561118a57808201518184015260208101905061116f565b83811115611199576000848401525b50505050565b600060028204905060018216806111b757607f821691505b602082108114156111cb576111ca6112da565b5b50919050565b6111da82611338565b810181811067ffffffffffffffff821117156111f9576111f8611309565b5b80604052505050565b600061120d82611153565b91507fffffffffffffffffffffffffffffffffffffffffffffffffffffffffffffffff8214156112405761123f61127c565b5b600182019050919050565b600061125682611153565b915061126183611153565b925082611271576112706112ab565b5b828206905092915050565b7f4e487b7100000000000000000000000000000000000000000000000000000000600052601160045260246000fd5b7f4e487b7100000000000000000000000000000000000000000000000000000000600052601260045260246000fd5b7f4e487b7100000000000000000000000000000000000000000000000000000000600052602260045260246000fd5b7f4e487b7100000000000000000000000000000000000000000000000000000000600052604160045260246000fd5b6000601f19601f8301169050919050565b7f5761697420316d00000000000000000000000000000000000000000000000000600082015250565b7f547279696e6720746f207769746864726177206d6f7265206d6f6e657920746860008201527f616e2074686520636f6e7472616374206861732e000000000000000000000000602082015250565b7f4661696c656420746f207769746864726177206d6f6e65792066726f6d20636f60008201527f6e74726163742e00000000000000000000000000000000000000000000000000602082015250565b50565b61141c81611121565b811461142757600080fd5b5056fea2646970667358221220058afd8dd4dd37afedacbe4b4b8876e4d1a487cbfd9faeea81551d4dd72dcdbe64736f6c63430008040033",
  "linkReferences": {},
  "deployedLinkReferences": {}
}